:020000040800F2
:10000000C0080020B5010008990F0008D50D0008B0
:1000100000000000000000000000000000000000E0
:100020000000000000000000000000009112000825
:10003000000000000000000085100008BD1300084B
:10004000C7010008C7010008C7010008C701000870
:10005000C7010008C7010008C7010008250B0008F8
:10006000C7010008C7010008C7010008C701000850
:10007000C7010008C7010008C7010008C701000840
:100080006D150008C701000800000000C701000846
:10009000C7010008C7010008C7010008C701000820
:1000A000C7010008C7010008C7010008C116000801
:1000B0008517000800000000C701000800000000CC
:1000C00000F002F800F04BF80CA030C808382418F3
:1000D0002D18A246671EAB4654465D46AC4201D180
:1000E00000F03DF87E460F3E0FCCB6460126334267
:1000F00000D0FB1AA246AB463343184754530000C6
:1001000074530000103A02D378C878C1FAD8520765
:1001100001D330C830C101D504680C6070470000BD
:100120000023002400250026103A01D378C1FBD813
:10013000520700D330C100D50B60704710B5642959
:1001400002D100F09FF810BD782902D100F0D0F85C
:1001500010BD002010BD1FB51FBD10B510BD00F0B3
:1001600083FB1146FFF7F7FF03F0DEFA00F09BFB7D
:1001700003B4FFF7F2FF03BC01F037FC70B505468E
:100180000C46164602E00FCC0FC5103E102EFAD2D8
:10019000082E02D303CC03C5083E042E07D301CC9E
:1001A00001C5361F03E021782970641C6D1C761E82
:1001B000F9D270BD0748804707480047FEE7FEE7D1
:1001C000FEE7FEE7FEE7FEE704480549054A064B61
:1001D00070470000C5130008C1000008C0020020DD
:1001E000C0080020C0040020C004002070470000A8
:1001F0000FB4054910B503AA029800F005FB10BC26
:1002000008BC04B018470000300000200FB41CB533
:10021000074B06AA7B4469460090059800F0DBFA7C
:100220000020694600F0EAFA1CBC08BC04B018477C
:10023000E505000070B5044685690068C10601D572
:10024000302600E02026C00707D070BD6268304627
:10025000A1689047206A401C20626D1EF6D570BDD3
:1002600070B5044685690078C00707D170BD626823
:10027000A16820209047206A401C20626D1EF6D5A0
:1002800070BD0000F7B5002575291068009914A607
:1002900011D0C046C046002802DA404211A608E04C
:1002A000009909688A0701D50FA602E0490704D51D
:1002B0000EA6012501E0C046C046009F0024243759
:1002C00004E000F0B5FA30313955641C0028F8D14B
:1002D0002B4632462146009800F01FFAFEBD000072
:1002E000000000002D0000002B0000002000000096
:1002F00070B504460D4621461068C046C0462188A8
:10030000090502D50F4A7A4402E00E4A7A440E32B9
:1003100023460021243305E006070009360F965DC9
:100320005E54491C0028F7D120780023000705D52A
:10033000702D03D0002901D002231132204600F095
:10034000ECF970BD0A510000F3B50446002081B0FD
:1003500020622046E168884700287DD0252802D009
:100360006268A16883E0454F00257F442046E1682C
:1003700088472028064608DB312E06D2B8192038D7
:100380000078002801D00543F0E7A80701D5042034
:1003900085430020E0610746A0612A2E0AD030463E
:1003A00001F01CFB002827D0B8000019303E009057
:1003B000866119E00298BA00121902C89161029090
:1003C0002046E1688847012F064617D1E0690028DA
:1003D0001FDA202085431CE000980A2180694843E9
:1003E00000998019303888612046E16888470646C0
:1003F00001F0F4FA0028EFD1012F0AD02E2E08D1F7
:100400002046E16888470646202005437F1C022FCE
:10041000C3DBA069002803DA4042A0610120054344
:10042000E80701D010208543002E24D03046413803
:10043000192803D80120C002054320362046256034
:100440003146029A1546FFF779FE00280CD00128A4
:1004500007D0ED1DE80800E00DE0C0000830029074
:1004600077E72D1D029574E762683046A1689047D2
:10047000206A401C6CE7206AFEBD0000CE500000E0
:1004800030B5441C03E00178401C00290DD08107E1
:10049000F9D10B4BDD0104C8D11A91432940FAD0A0
:1004A000001B0A0603D0C01E30BD001B30BD0A046D
:1004B00001D0801E30BD0902FCD0401E30BD0000BE
:1004C00001010101F8B5042A2CD3830712D00B785F
:1004D000491C0370401C521E83070BD00B78491C2B
:1004E0000370401C521E830704D00B78491C037014
:1004F000401C521E8B079B0F05D0C91ADF0020231A
:10050000DE1B08C90AE0FFF739FEF8BD1D4608C921
:10051000FD401C46B4402C4310C0121F042AF5D2E3
:10052000F308C91A521EF0D40B78491C0370401C02
:10053000521EEAD40B78491C0370401C012AE4D4F3
:1005400009780170F8BD01E004C0091F0429FBD23D
:100550008B0701D50280801CC90700D0027070474C
:1005600000290BD0C30702D00270401C491E02298B
:1005700004D3830702D50280801C891EE3E7002292
:10058000EEE70022DFE70378C278194643781206C7
:100590001B0219438378C0781B04194311430902D5
:1005A000090A000608437047020A08704A70020CE4
:1005B0008A70020ECA707047002203098B422CD346
:1005C000030A8B4211D300239C464EE003460B43A3
:1005D0003CD4002243088B4231D303098B421CD305
:1005E000030A8B4201D394463FE0C3098B4201D3F7
:1005F000CB01C01A524183098B4201D38B01C01A2F
:10060000524143098B4201D34B01C01A52410309A5
:100610008B4201D30B01C01A5241C3088B4201D354
:10062000CB00C01A524183088B4201D38B00C01A01
:10063000524143088B4201D34B00C01A5241411A28
:1006400000D201465241104670475DE0CA0F00D00B
:100650004942031000D34042534000229C46030904
:100660008B422DD3030A8B4212D3FC22890112BA8A
:10067000030A8B420CD3890192118B4208D3890162
:1006800092118B4204D389013AD0921100E089097A
:10069000C3098B4201D3CB01C01A524183098B425B
:1006A00001D38B01C01A524143098B4201D34B0144
:1006B000C01A524103098B4201D30B01C01A5241A7
:1006C000C3088B4201D3CB00C01A524183088B422E
:1006D00001D38B00C01A5241D9D243088B4201D3B7
:1006E0004B00C01A5241411A00D2014663465241A2
:1006F0005B10104601D34042002B00D549427047A1
:1007000063465B1000D3404201B50020C046C0469E
:1007100002BD7047704770477047FFB504460D46ED
:1007200081B0243000902168880604D51022E06949
:100730009143216000E00120A84201DD471B00E059
:1007400000270498A1697A191018081AA061207866
:10075000C00602D42046FFF76DFD002608E003988E
:100760006268A168805D9047206A401C761C206208
:1007700004988642F3DB2078C0060AD52046FFF7AE
:1007800059FD06E06268A16830209047206A401C4D
:10079000206238467F1E0028F4DC07E0009862687B
:1007A000A168405D9047206A401C206228466D1E6B
:1007B0000028F3DC2046FFF753FD2078000602D521
:1007C000022005B0F0BD0120FBE7000001694A1CD2
:1007D00002610878704700B58FB002910021059141
:1007E0000549019379440391114604906846FFF747
:1007F000ABFD0FB000BD0000E5FFFFFF0A68107001
:10080000521C0A6070470000084B70B50D467B44CF
:10081000FFF7E1FF0446284600F01EF8002802D04A
:100820000020C04370BD204670BD000017120000BC
:1008300001468008081A02091018020A1018020C52
:100840001018C008820012185200891A01E0401CDA
:100850000A390A29FBD27047C068802108407047D6
:1008600000487047600200207546FFF7F9FFAE466A
:10087000050069465346C008C000854618B020B53B
:10088000FFF7A2FC60BC00274908B6460026C0C599
:10089000C0C5C0C5C0C5C0C5C0C5C0C5C0C5403D38
:1008A00049008D4670470446C046C0462046FFF7C3
:1008B0005FFC000010B500241948006803210904FA
:1008C00088431749086008460068086004E0601C17
:1008D000C4B2012000F0DEF8FF210131104800F021
:1008E00001FA002801D0642CF1DB642C01DB01202B
:1008F00010BD002404E0601CC4B2012000F0CAF85E
:10090000FF210131064800F0EDF9002801D1642CE7
:10091000F1DB642C01DB0120EAE70020E8E70000BE
:10092000000400481CB50121880400F0ADFBFF2045
:1009300001300090012168460171C171002181716F
:10094000012141716946044800F062F900F074F831
:10095000FFF7B0FF1CBD00000004004810B50024E4
:1009600004E0601CC4B2012000F094F8FF210131C2
:10097000124800F0B7F9002801D0642CF1DB002404
:1009800004E0601CC4B2012000F084F8FF210131B2
:100990000A4800F0A7F9002801D1642CF1DB2820D7
:1009A00000F078F8FF210131044800F09BF900289D
:1009B00001D0012010BD0020FCE700000004004829
:1009C00070B50024002506E06006040EFFF7C6FFA0
:1009D0000443681CC5B2082DF6DB204670BD7CB50B
:1009E00005460E4600F028F8FFF764FF00281ED1E8
:1009F000002405E0FFF7E4FF69460855601CC4B217
:100A0000052CF7DB6846017840780918684680783D
:100A100009186846C078091868460079814208D1EB
:100A200068460078307068468078287001E00120C0
:100A30007CBD0020FCE7000010B50F4800680321D2
:100A4000090488430C490860084600688901084386
:100A500009490860FF210131074800F04DF91420D1
:100A600000F00CF8FF210131034800F047F91E2087
:100A700000F010F810BD00000004004801B5044962
:100A80000098086000BF024800680028FBD108BD3C
:100A90002C00002070B504460025002101208007AD
:100AA00000F0A6FD0121880700F074FD00BF0120C1
:100AB0008007456AA542FAD370BD00B585B0012113
:100AC000084600F001FB0121480400F0DDFA07218F
:100AD00068460170002141700121817000F05EFACA
:100AE000FF20013003900021684601740221417407
:100AF0000121C17403A90920C00600F089F808216A
:100B0000002000F0C7FBFF20013001900021684663
:100B10000172082141720121817201A800F034F8AC
:100B200005B000BD10B5FF20013000F019F8002815
:100B300006D004A0FFF75CFBFF20013000F00AF8AC
:100B400010BD00006B657920696E746572727570F6
:100B5000740D0A000149486170470000000401401B
:100B6000014600200022074B1B680B401A46054B2C
:100B70005B690B40002B03D0002A01D0012000E06C
:100B80000020704700040140002120498279002A9A
:100B900035D00A46126803689A430B461A600A4623
:100BA000526803689A430B465A60027951180A68E2
:100BB00003681A430A60154A926803689A43134B04
:100BC0009A601A46D26803689A43104BDA604279F9
:100BD000102A0CD11A46926803681A430B4B9A608C
:100BE0001A46D26803681A43084BDA600DE00749D9
:100BF000427951180A6803681A430A6005E00279CD
:100C000051180A6803689A430A607047000401405B
:100C1000F0B50A4600210023002400BF3DE0012575
:100C20008D402B4615681D402C469C4234D11579C9
:100C3000012D02D01579022D16D185684F000326AB
:100C4000BE40B543856055794E00B5408668354352
:100C50008560858801268E40B54385808588967994
:100C60008E40B6B23543858005684F000326BE40EE
:100C7000B543056015794E00B540066835430560FB
:100C8000C5684F000326BE40B543C560D5794E0008
:100C9000B540C6683543C560491C1029BFD3F0BDB7
:100CA000F0B5002300244D07EE0E1546B5402B4647
:100CB000CD10AE0005462035AD594E07F70E0F2674
:100CC000BE40B543CE10B60007462037BD51CD100B
:100CD000AE003D46AD591D432C46CD10AD003E46FD
:100CE0007451F0BD02460020138A0B40002B01D046
:100CF000012000E000207047018570478161704746
:100D0000FFB58DB000254CE01698405DA12801DBB1
:100D100011B0F0BD1698405D0A900A980001099044
:100D2000002706E00998C0192149085C01A9C855A7
:100D30007F1C102FF6DB002630E000242BE020463D
:100D4000E117490F0918C910C900611A0C9101A8CF
:100D5000805D80220C990A41104000280DD00D982A
:100D60000019E90040180B900E9AB21891B20B9A34
:100D700090B20F9A00F01EF80CE00D980019E900EF
:100D800040180B900E9AB21891B20B9A90B2109A2A
:100D900000F010F8641C082CD1DB761C102ECCDB84
:100DA0006D1C1698FFF76CFBA842ADD800BFAFE7EB
:100DB000D141000870B504460D461646681C83B242
:100DC000601C82B22946204600F08FF8304600F0C1
:100DD00003F870BD00BFFEE710B504460120C00354
:100DE00008490881102008498861201200F032FA71
:100DF000E0B200F02FFA0120C0030921C906886182
:100E000010BD0000200000480004004870B50646F0
:100E10007F231A460021084600F067F82C2000F0D6
:100E2000A5F8002408E0002503E03046FFF7D4FFD2
:100E30006D1C802DF9D3641C802CF4D370BD000090
:100E40001CB50121880400F01FF90121480400F0BD
:100E50001BF910200090012168460171C171002129
:100E600081710121417169461048FFF7D1FE0120CF
:100E7000C0030090012168460171C1710021817198
:100E80000121417169460920C006FFF7C1FE6820B3
:100E90000090012168460171C17100218171012119
:100EA000417169460148FFF7B3FE1CBD00040048CC
:100EB00010B5112000F05AF87820FFF7DFFD11205F
:100EC00000F054F87820FFF7D9FD362000F04EF8F6
:100ED000C82000F035F83A2000F048F8052000F06E
:100EE0002FF8292000F042F810BDF0B504460D4659
:100EF00016461F462A2000F039F8002000F020F89E
:100F0000A11CC8B200F01CF8002000F019F8B11CB8
:100F1000C8B200F015F82B2000F028F8002000F0EF
:100F20000FF8E91CC8B200F00BF8002000F008F838
:100F3000F91CC8B200F004F82C2000F017F8F0BD3E
:100F400010B504460120C003064908811020064957
:100F50008861204600F07EF90120C0030921C906FE
:100F6000886110BD200000480004004810B5044608
:100F70000120C00306490881102006490881204647
:100F800000F068F90120C0030921C906886110BD7D
:100F900020000048200400487047000000218278AB
:100FA000002A27D0184A03231B02D21803789B106B
:100FB0009B00D15802789207D30EFF229A400B462D
:100FC0009343194642789207120E03789B07DB0E73
:100FD0009A4011430C4A03231B02D21803789B103A
:100FE0009B00D1500278D306DB0E01229A40064BBB
:100FF0001A6007E00278D306DB0E01229A40024B0A
:1010000080331A607047000000E100E010B500284E
:1010100019DA1A4A03071B0F083B9B089B00D2589A
:101020008307DC0EFF23A3409A438B071B0E840724
:10103000E40EA3401A43114B0407240F083CA408F4
:10104000A4001A5118E00E4A03231B02D218830889
:101050009B00D2588307DC0EFF23A3409A438B07E3
:101060001B0E8407E40EA3401A43054B03242402FD
:101070001B198408A4001A5110BD00001CED00E0EB
:1010800000E100E070470000002905D0054A5269E0
:101090000243044B5A6104E0024A52698243014B05
:1010A0005A61704700100240002905D0054AD269F4
:1010B0000243044BDA6104E0024AD2698243014BE5
:1010C000DA61704700100240002905D0054A926994
:1010D0000243044B9A6104E0024A92698243014B45
:1010E0009A61704700100240FEB5044600250026B4
:1010F0000020019000900027504840680C210840D3
:101100000546002D04D0042D05D0082D28D105E07A
:101110004B48206027E04A48206024E04748406868
:101120000F21890408400646444840680321C9034A
:1011300008400190B00C861C0198002803D141485A
:10114000704320600BE03D48C06A0007000F401C60
:1011500000903B480099FFF72FFA7043206002E0AF
:101160003748206000BF00BF34484068F021084085
:1011700005462D093448475D2068F84060602F48D7
:10118000406807210902084005462D0A2E48475DA0
:101190006068F840A0602948006BFF2101310840D9
:1011A000884202D02948E0600DE0244840680121CF
:1011B00089030840884203D0A0684008E06002E04C
:1011C000A0688008E0601D48006B4021084040286E
:1011D00002D01F48206102E00120C00320611748AF
:1011E000006B10210840102802D01548606101E012
:1011F000206860611148006B8007800F002802D1D1
:10120000A068A06119E00D48006B8007800F0128DD
:1012100002D12068A06110E00848006B8007800FB1
:10122000022802D18003A06107E00448006B800718
:10123000800F032801D10248A061FEBD00100240CA
:1012400000127A0000093D001A000020809FD5009E
:1012500012800000082115E080220240002A03D0FD
:1012600020220A4B9A6103E02022084B20331A8186
:101270000822064B9A61054B20331A814206100E54
:101280004A1ED1B20029E7DC704700000004004884
:101290007047000030B500228B071C0F0F23A340BE
:1012A0001A460B4B8C10A4001B599343084C8D100D
:1012B000AD00635123468C10A4001B598C07250FE9
:1012C0000446AC402343024C8D10AD00635130BD49
:1012D000080001400CB500200190009035480068DE
:1012E0000121090408433349086000BF3148006800
:1012F00001214904084000900198401C0190009889
:10130000002804D10521090301988842EED129481B
:101310000068012149040840002802D00120009003
:1013200001E0002000900098012842D12248006886
:10133000102108432049086008460068012108433D
:101340001D4908601B4840681A49486008464068C3
:101350004860084640687F21C903884315494860B2
:1013600008464068112109040843124948600846AC
:1013700000680121090608430E49086000BF0D48B6
:1013800000680121490608400028F8D00948406853
:1013900080088000074948600846406802210843E9
:1013A0000449486000BF034840680C2108400828F1
:1013B000F9D10CBD001002400020024010B500F031
:1013C00057F910BD10B51B480068012108431949A1
:1013D00008600846406818490840164948600846B1
:1013E0000068164908401349086008460068012152
:1013F000890488430F490860084640683F21090472
:1014000088430C4948600846C06A00090001C86268
:101410000846006BFF21543188430649086308469B
:10142000406B40084000486300208860FFF752FF8F
:1014300010BD0000001002400CB8FFF8FFFFF6FEE0
:1014400010B57D21C9000E480068FFF7B5F80446C5
:10145000601E0C49884201D901200CE0601E0A4937
:1014600048610321081FFFF7D1FD0020064988616C
:10147000072008610020002801D000BFFEE710BD52
:1014800000000020FFFFFF0000E000E010B5012198
:101490000846FFF709FE124912480068FFF78CF86A
:1014A000401E114908800120C043104948600020B7
:1014B0000880088148800120800700F09BF8012205
:1014C00009480188900700F090F801221146900722
:1014D00000F081F80121880700F05CF810BD0000E1
:1014E00040420F000000002038000020E8000020EB
:1014F00010B5114911480068FFF75EF8401E104909
:1015000008807D20C0000F494860002008800881C5
:1015100048800D4800F06EF80122094801880A4809
:1015200000F063F801221146074800F054F8012149
:10153000054800F02FF810BD40420F0000000020C9
:1015400038000020E80000200004004008B5012118
:101550000220FFF7A9FD10216846017000214170AB
:1015600001218170FFF71AFD08BD000010B50121AF
:10157000054800F01DF8002805D00121024800F0C0
:1015800005F801F0F5FC10BD00040040CA430282DA
:1015900070470000002904D0028801231A4302800A
:1015A00003E00288014B1A4002807047FEFF0000F2
:1015B00030B50246002000230024158A0D402B463A
:1015C00095890D402C46002B03D0002C01D0012022
:1015D00000E0002030BD002A03D083890B438381C3
:1015E00002E083898B438381704701858282704743
:1015F0004162704700220288154B984206D00123B1
:101600009B07984202D0134B984203D1124B1A40C9
:101610004B881A43114B984203D0114B1A400B8947
:101620001A4302804B68C3620B880385084B9842BB
:1016300008D00C4B984205D00B4B984202D00B4B74
:10164000984201D18B7A0386012383827047000080
:10165000002C0140000400408FFF000000100040FB
:10166000FFFC0000004001400044014000480140F0
:1016700004480068002804D002480068401E014960
:10168000086070472C00002000BF0549C96980220E
:1016900011400029F9D0024920310881704700002B
:1016A0000044004000BF0548C069202108400028D0
:1016B000F9D0024820308088C0B27047003801401D
:1016C00000B5FFF7EFFF0549054A12688854044842
:1016D0000068401C0249086000BD00008200002034
:1016E0003400002000B589B001214804FFF7CCFC8C
:1016F00001214804FFF7D8FC012202210920C0067D
:10170000FFF7CEFA012203210920C006FFF7C8FA2D
:101710000C200790022108A801700021817001218E
:10172000C1700321417007A90920C006FFF770FAB4
:101730001C21684601700021417001218170FFF772
:101740002DFC4B20C00101900020029003900490DA
:1017500006900C20059001A9084800F0B3F801227A
:101760000749064800F08CF8082004490862012166
:10177000024800F023F809B000BD0000004400401A
:101780000501050008B5002000900B48C069202124
:10179000084000280CD0082007490862064820307D
:1017A0008088C0B200900121684601F09FFA02E0F3
:1017B00008200149086208BD00440040002904D007
:1017C000026801231A43026003E0026852085200D3
:1017D0000260704700B589B001214804FFF754FC4E
:1017E00001218803FFF770FC01220921C806FFF7D9
:1017F00057FA01220A210920C006FFF751FA0320F7
:1018000040020790022108A8017000218170012187
:10181000C1700321417007A90920C006FFF7F8F93C
:101820001B21684601700021417001218170FFF782
:10183000B5FBE1204002019000200290039004904B
:1018400006900C20059001A9064800F03BF8012203
:101850000549044800F014F801210248FFF7AEFFE3
:1018600009B000BD00380140050105000246002016
:10187000D3690B40002B01D0012000E0002070470D
:10188000F8B50346002400260096002500201846DF
:101890000E04340ECEB200960127009EB7403D469E
:1018A000022C01D1001D02E0032C00D10830002AD7
:1018B00003D006682E43066002E00668AE43066069
:1018C000F8BD0000F0B589B005460E4600240020A2
:1018D000089000BF00BF28684008400028606C687E
:1018E00003210903204688430446B06804436C6022
:1018F0002C682F480440F168706808433169084338
:1019000004432C60AC680321090220468843044646
:1019100070690443AC606846FFF7E6FB25488542E2
:1019200002D10698089001E00298089028680121E9
:10193000C9030840002809D0326851001923089AC9
:101940005A431046FEF738FE074608E03268910019
:101950001923089A5A431046FEF72EFE07466421C3
:101960003846FEF729FE0401200964214843381A4D
:10197000079028680121C903084000280AD0079968
:10198000C900084632306421FEF716FE4007400FBA
:10199000044309E007990901084632306421FEF743
:1019A0000BFE0007000F0443AC8109B0F0BD00003E
:1019B000F3E9FFFF00380140CA05D20D02857047E8
:1019C00030B47446641E2578641CAB4204D3635D56
:1019D0005B00E31830BC18471D46F8E730380A288A
:1019E00001D2012070470020704700BF704701B549
:1019F00081B000230093694601AA507808701078DE
:101A00004870684600880CBD01460806FF22120295
:101A10000A4012021043FF2212040A40120A104325
:101A20000A0E10437047000070B504460D46E1B23F
:101A30000548FFF7C1FF00BF80210348FFF716FFED
:101A40000028F9D0204670BD003801400246002A27
:101A500003D05007400F002805D1082901D80020E5
:101A600070470120FCE75007400F0823181A8842EE
:101A700001D30020F4E70120F2E730B502460B461F
:101A8000002100240025002A01D1401E30BD002184
:101A900008E0545C581A401E155C5554581A401EF4
:101AA0001454491C58088842F3D80020EEE700007F
:101AB000F8B504460D460026002C01D0002D05D1B6
:101AC00020A0FEF795FB0020C043F8BD28782178C0
:101AD000884203D025A0FEF78BFB0126681CFEF789
:101AE00052FD0746601CFEF74EFD87420FD000F006
:101AF00055F925490968401A2449884207D324A08A
:101B0000FEF776FB00F04AF91F4908600126681DC0
:101B1000FEF739FD0746601DFEF735FD87420FD001
:101B200000F03CF918490968401A1849884207D35F
:101B30001EA0FEF75DFB00F031F913490860012695
:101B40003046C2E767697A436865636B5265706FB8
:101B50007274204572726F72202C20496C6C65671C
:101B6000616C20506172616D0A00000076616C75D5
:101B700065536D6172745377697468204368616E50
:101B80006765640A00000000400000207017000034
:101B900076616C756554656D70657261747572659A
:101BA000204368616E6765640A00000076616C75A9
:101BB0006548756D6964697479204368616E67650D
:101BC000640A0000F8B505460C461646002D03D001
:101BD000002C01D0002E05D110A0FEF709FB00203B
:101BE000C043F8BD2878C007C00F002814D01121C9
:101BF0002278601C81542078401C207001206B1CCE
:101C0000024600210090084601F058F9002801D052
:101C1000012000E0002030700020E2E767697A448C
:101C2000617461506F696E74324576656E742045DB
:101C300072726F72202C20496C6C6567616C205049
:101C40006172616D0A000000F8B505460C46002D72
:101C500001D0002C05D115A0FEF7CAFA0020C04320
:101C6000F8BD002020702878234601220021009032
:101C7000084601F0E3F801212046FFF7FEFE681C4C
:101C8000FEF781FC064632460021012001F078F97A
:101C90006070681DFEF777FC064632460021012081
:101CA00001F06EF9A0700020DAE7000067697A445D
:101CB000617461506F696E7473325265706F7274C3
:101CC00044617461204572726F72202C20496C6CE3
:101CD0006567616C20506172616D0A0070B50546E0
:101CE00000F05CF804461E492846FFF7E1FE012893
:101CF00014D11CA0FEF77CFA19490C392846FFF7CD
:101D0000A3FF002805D1032215490C39042001F056
:101D100029F8092229461248FEF7D4FB1749204624
:101D2000FEF74AFC00291AD115480068A04216D0D7
:101D300014A0FEF75DFA0A490C392846FFF784FF24
:101D4000002805D1032206490C39042001F00AF8C5
:101D5000092229460248FEF7B5FB0948046070BD18
:101D6000C60100206368616E6765642C207265702F
:101D70006F727420646174610A000000C02709005A
:101D800044000020496E666F3A203630305320728E
:101D900065706F727420646174610A0001480068A4
:101DA000704700003C00002070B5194840780128B9
:101DB0002DD117481D38407F022824DAFFF7EEFFA7
:101DC000044613481C30FEF7DEFB201AC8281ED933
:101DD0000F481C30FEF7D7FB0446FFF7DFFF054630
:101DE0000B481D38437F224629460AA0FEF700FA19
:101DF00000F0CAFE06481D38407F401CC1B20448AE
:101E00001D38417703E020210148FEF7B8FB70BD83
:101E10004E0100205761726E696E673A67697A50A9
:101E2000726F746F636F6C526573656E6444617436
:101E3000612025642025642025640A003EB50446FF
:101E40000025002C04D114A0FEF7D2F9601E3EBD7F
:101E5000082221466846FEF735FB68460079401C9B
:101E6000C1B2684601710520FFF7C1FD0146684611
:101E70004180092100F0CEFE6946087209216846BA
:101E800001F078FE0546002D03DA29460DA0FEF785
:101E9000AFF92846DBE700004552523A2067697ADD
:101EA00050726F746F636F6C436F6D6D6F6E4163D3
:101EB0006B206461746120697320656D7074792092
:101EC0000A0000004552523A207561727420777200
:101ED000697465206572726F72202564200A0000A3
:101EE000FEB504460E460025002C04D112A0FEF7D4
:101EF0007FF9601EFEBD684600F0DEF912216846DB
:101F00000171617941710620FFF771FD0146684654
:101F1000418006720A2100F07DFE694648720A215E
:101F2000684601F027FE0546002D03DA29460DA07C
:101F3000FEF75EF92846DDE767697A50726F746FC5
:101F4000636F6C4572726F72436D64204572726F7D
:101F500072202C20496C6C6567616C205061726145
:101F60006D0A00004552523A2075617274207772F2
:101F7000697465206572726F72202564200A000002
:101F800030B59DB004460025002C05D12CA0FEF7ED
:101F90002FF9601E1DB030BD684600F08DF902219A
:101FA000684601716179417131A103C903910290C1
:101FB00032A103C90591049033A103C90991089086
:101FC00034A103C907910690202235A10AA8FEF783
:101FD000D5F820223BA114A80230FEF773FA08219D
:101FE00012A80230FEF7CBFA12A80230C07912A96B
:101FF0000231C8710846C0790221084312A9023192
:10200000C8710020FFF7F3FC014610A801816F2082
:10201000FFF7EDFC014668464180732100F0FAFDB0
:1020200018A988747321684601F0A4FD0546002DA7
:1020300003DA29462CA0FEF7DBF82846AAE70000C1
:1020400067697A50726F746F636F6C47657444652B
:1020500076696365496E666F204572726F72202CD7
:1020600020496C6C6567616C20506172616D0A007B
:10207000303030303030303400000000303030301C
:102080003030303200000000303330333030303008
:1020900000000000303330313031303000000000BB
:1020A00032373565343966306661636234383931C8
:1020B00038623865383638383366303864626638A6
:1020C00000000000653331663030393066346236E6
:1020D00034646337616565653634346564623462DF
:1020E00033306463000000004552523A207561723B
:1020F00074207772697465206572726F722025642E
:10210000200A0000F7B586B00E461746002005905D
:102110000490039001900025344600900698002812
:1021200003D0002E01D0002F06D153A0FEF760F897
:102130000020C04309B0F0BD069801F08AFBC0B290
:1021400001900198002801D1401EF3E70020039080
:1021500063E0012202A9069801F0E2FB05900598D0
:10216000002857D050480078FF2820D16846007AD0
:10217000FF281CD14D480078002809D1FF2020708D
:10218000607002204A49088001204849087038E000
:1021900047480088042834DD45480088A84230D0EC
:1021A000FF202070607002204149088029E03E48ED
:1021B0000078FF2803D16846007A552821D03B4893
:1021C000007801281DD16846007A39490988605491
:1021D00037480088401C3649088008460088042893
:1021E0000FDD0094009CE178A278090211430846B3
:1021F000FFF7FDFB001D85B22D480088A84200D1E5
:102200000FE06846007A284908702A480078401C88
:10221000284908700398401C03900199039888424C
:1022200097DB00BF22480088042823DD204800886F
:10223000A8421FD11E480188204600F0EBFC049004
:102240001B480088401E215C049881420FD12A4619
:1022500021463046FEF736F93D80002013490870CC
:1022600013490880134908700F49087062E701207C
:10227000C0435FE701205DE767697A50726F746F52
:10228000636F6C4765744F6E655061636B65742056
:102290004572726F72202C20496C6C6567616C20EE
:1022A000506172616D0A00004C000020480000205F
:1022B0004A0000204D00002010B50446002C04D137
:1022C00006A0FDF795FF601E10BD08212046FEF711
:1022D00056F9FF20207060700020F5E74552523A11
:1022E0002067697A50726F746F636F6C48656164C0
:1022F000496E6974206865616420697320656D703A
:102300007479200A00000000FFB58FB0064617461A
:1023100000200E9001900090002502AC109800283B
:1023200005D135A0FDF764FF681E13B0F0BD12980B
:10233000012806D1307A00900098801DC01985B21E
:1023400001E0781D85B22B46394631A0009AFDF791
:102350004FFFFF202070641C2070641C2812207026
:10236000641C2570641C3079401C2070641C7079DA
:102370002070641C00202070641C12982070641C63
:10238000082001901298012813D100982070641C35
:102390000198401C019002AA019950183146093158
:1023A000009AFEF78FF80099019840180190009864
:1023B0002418002F06D002AA019950183A46109905
:1023C000FEF780F8291D02A800F024FC0146E81C55
:1023D00002AA1154291D02A801F0CCFB0E900E9800
:1023E000002806DA14A00E99FDF702FF0120C04371
:1023F0009BE7002099E700005B4552525D20206476
:10240000617461204973204E756C6C200A000000D5
:102410006C656E203D202564202C20734469644C3B
:10242000656E203D202564202C646174615F6C65BD
:102430006E203D2025640A007561727420777269F0
:102440007465206572726F72202564200A00000096
:10245000FFB581B00C4617461D460A9E20780090B5
:10246000002C03D0002D01D0002E06D12FA0FDF7A7
:10247000BFFE0020C04305B0F0BD0198002852D136
:1024800013213648FEF77BF80098012804D0022873
:1024900010D0052845D124E0304A4F322F49601C26
:1024A000FFF790FB01202D495D39087000250020C1
:1024B000306037E029494C3108460C30FFF7C4FB47
:1024C00000280AD1032225494C31681CFDF7FAFF88
:1024D000032028700420306002E00020C043CAE7D7
:1024E00020E07A1E611C1D484438FDF7EBFF781E82
:1024F0001A492C39FEF758F8102118481D38427F28
:102500001E3081541E38407F401CC1B213481D3814
:102510004177032011495D390870002500203060A3
:1025200000E000BF00BF0020A5E7000067697A5007
:10253000726F746F636F6C49737375656450726FFB
:1025400063657373204572726F72202C20496C6C26
:102550006567616C20506172616D0A006E01002038
:1025600070B504462546002C04D10FA0FDF740FEAF
:10257000601E70BD4122294608310F48FDF7A2FFB9
:102580000F210D484B38827D173081541738807DDC
:10259000401CC1B208484B38817505200649CB392B
:1025A00008700020E5E700004E5450206973206554
:1025B0006D707479200A0000DC01002010B504461B
:1025C000002C04D1CEA0FDF713FE601E10BD617A71
:1025D000227A090211430846FFF709FA2072000A1D
:1025E0006072D34800784007C00F217A4907C90FAD
:1025F000884251D0207A4007C00F002826D0207A88
:10260000C007C00F00280DD00021CA48027C11303D
:1026100081541138007C401CC1B2C6480174C6A068
:10262000FDF7E6FD207A8007C00F002834D0012195
:10263000C048027C113081541138007C401CC1B26A
:10264000BC480174C4A0FDF7D3FD25E0207AC00783
:10265000C00F00280DD00021B648027C11308154F3
:102660001138007C401CC1B2B2480174B2A0FDF721
:10267000BFFD207A8007C00F00280DD00221AD4891
:10268000027C113081541138007C401CC1B2A94831
:102690000174B8A0FDF7ACFDA54800780007C00F95
:1026A000217A0907C90F88422ED0A1480078082155
:1026B0008843217A0907C90FC9000822114008433D
:1026C0009B490870207A0007C00F00280ED0032114
:1026D0009848027C113081541138007C401CC1B2F2
:1026E00094480174AAA0FDF783FD0DE004219148F0
:1026F000027C113081541138007C401CC1B28D48DD
:102700000174ABA0FDF774FD89480078C006C00FC6
:10271000217AC906C90F88422ED085480078102139
:102720008843217AC906C90F0901102211400843C4
:102730007F490870207AC006C00F00280ED00521FE
:102740007C48027C113081541138007C401CC1B29D
:10275000784801749EA0FDF74BFD0DE006217548F9
:10276000027C113081541138007C401CC1B2714888
:1027700001749FA0FDF73CFD6D4800788006C00FF6
:10278000217A8906C90F88422ED069480078202115
:102790008843217A8906C90F490120221140084344
:1027A00063490870207A8006C00F00280ED00721E8
:1027B0006048027C113081541138007C401CC1B249
:1027C0005C48017493A0FDF713FD0DE00821594802
:1027D000027C113081541138007C401CC1B2554834
:1027E000017493A0FDF704FD514840780007C10F24
:1027F000607A0007C00F81422ED04D4840780821F2
:102800008843617A0907C90FC900082211400843AB
:1028100047494870607A0007C00F00280ED00B218E
:102820004448027C113081541138007C401CC1B2F4
:102830004048017486A0FDF7DBFC0DE00C213D480B
:10284000027C113081541138007C401CC1B23948DF
:10285000017486A0FDF7CCFC35484078C006C10F56
:10286000607AC006C00F81422ED0314840781021D6
:102870008843617AC906C90F090110221140084333
:102880002B494870607AC006C00F00280ED009217D
:102890002848027C113081541138007C401CC1B2A0
:1028A0002448017479A0FDF7A3FC0DE00A2121481A
:1028B000027C113081541138007C401CC1B21D488B
:1028C000017479A0FDF794FC0D211A48027C1130A7
:1028D00081541138007C401CC1B216480174607AE2
:1028E0004107490F134840308177817F75A0FDF77C
:1028F0007FFC02200F4960390870002066E6000066
:1029000067697A50726F746F636F6C4D6F64756C2A
:1029100065537461747573204572726F72202C2038
:10292000496C6C6567616C20506172616D0A0000D2
:102930004E000020710100204F6E426F6172646989
:102940006E673A20536F66744150206F722057654E
:1029500062206D6F64650A004F6E426F6172646938
:102960006E673A204169724C696E6B206D6F6465C9
:102970000A0000004F6E426F617264696E673A2010
:1029800053746174696F6E206D6F64650A00000096
:1029900057694669207374617475733A20696E20B3
:1029A00062696E64696E67206D6F64650A0000007D
:1029B00057694669207374617475733A206F757432
:1029C0002062696E64696E67206D6F64650A00003D
:1029D00057694669207374617475733A20636F6E2A
:1029E0006E656374656420726F757465720A0000A9
:1029F00057694669207374617475733A206469730A
:102A0000636F6E6E656374656420726F7574657252
:102A10000A00000057694669207374617475733A3F
:102A200020636F6E6E6563746564206D326D0A009D
:102A300057694669207374617475733A20646973C9
:102A4000636F6E6E6563746564206D326D0A00009D
:102A500057694669207374617475733A20617070A8
:102A600020636F6E6E6563740A00000057694669E3
:102A7000207374617475733A206E6F2061707020DA
:102A8000636F6E6E6563740A0000000057694669E3
:102A9000207374617475733A20696E207465737461
:102AA000206D6F64650A0000576946692073746180
:102AB0007475733A206F75742074657374206D6F2C
:102AC00064650A0052535349206973202564200A23
:102AD00000000000F8B504462546002C04D11CA0D7
:102AE000FDF786FB601EF8BD0B22294608311D4804
:102AF000FDF7E8FC1B491C394A7F0B7F1102194383
:102B00000846FEF774FF17491C390877000A487712
:102B100008462430FDF737FD0746FEF775FF0646E9
:102B200010490831FDF740FD0E210E483F38C278AC
:102B3000001D8154001FC078401CC1B209483F38B5
:102B4000C17004200749BF3908700020CBE700009E
:102B50004552523A204E545020697320656D70746E
:102B600079200A00D001002010B5FFF717F90446BC
:102B700000BFFFF713F9001B4B21C9008842F8D9A9
:102B800000F066FE10BD000070B5002412484078C9
:102B9000002800D170BD11A0FDF72AFB0E48C27EAF
:102BA000837E1002184301460B48801C00F0E2FFB0
:102BB00004460948C17E827E08021043A04202D02A
:102BC0000EA0FDF715FBFFF7E9F8054602491C3199
:102BD000FDF7EAFC00BFDDE74E0100205761726E91
:102BE000696E673A2074696D656F75742C20726523
:102BF00073656E642064617461200A004552523A24
:102C000020726573656E6420646174612065727200
:102C10006F720A0010B5024600240023002A01D07A
:102C2000002901D1002010BD022303E0D05C00196F
:102C3000C4B25B1C481E9842F8D82046F3E7000057
:102C400070B504460D46002C04D10FA0FDF7D0FA54
:102C5000601E70BD20211248FDF791FC2A462146D6
:102C60000F48801CFDF72EFCA9B20D488176090A99
:102C7000C17601214170FFF791F8064608491C31E1
:102C8000FDF792FC0020E4E74552523A206461745B
:102C90006120697320656D707479200A000000005E
:102CA0004E01002070B50446094D002C04D109A046
:102CB000FDF79EFA601E70BD2879401C217988427C
:102CC00004D120210248801EFDF759FC0020F2E7C4
:102CD000500100204552523A2064617461206973AA
:102CE00020656D707479200A0000000070B50446FC
:102CF0000D460026002C04D10AA0FDF779FA601ECB
:102D000070BD2A4621460F4800F08DFE0646AE42B1
:102D100005D00DA0FDF76CFA0020C043F0E7304667
:102D2000EEE700004552523A2067697A50757444C4
:102D30006174612062756620697320656D707479B5
:102D4000200A00001D0200204552523A20466169C7
:102D50006C656420746F2072625772697465200A12
:102D600000000000F7B586B005460E460024002E90
:102D700005D120A0FDF73CFA601E09B0F0BD02A805
:102D8000FFF79AFA0521684601732448FDF7FBFB1B
:102D900007462248FDF7F7FB401C20490190FDF74C
:102DA00003FC6846477305740920FEF720FE0146C0
:102DB0006846418131461130089AFDF783FB0D21A9
:102DC00002A8FFF727FF694608750D2102A800F049
:102DD000D1FE0446002C06DA214611A0FDF708FAC0
:102DE0000120C043C9E70D2102A8FFF729FF2046B3
:102DF000C3E7000067697A5265706F72744461744A
:102E000061204572726F72202C20496C6C6567617D
:102E10006C20506172616D0A0000000046010020C4
:102E20004552523A20756172742077726974652038
:102E30006572726F72202564200A0000FFB583B0AE
:102E400005460E461C460C9F002002900190009003
:102E5000002C02D1401E07B0F0BD30460599FEF7A8
:102E6000F5FD00900098002807D1605D7207520FB1
:102E700039469140084360551EE0009801281BD157
:102E8000F8B27107490F0822511A084102907007E1
:102E9000400F0821091AFF20084138400190681CA2
:102EA000205C02990843691C6054615D7207520FEF
:102EB00001989040014361550020CCE7FFB591B0E7
:102EC00005460C461646002010900F900E900027E5
:102ED0001498002802D01A98002803D10020C0437B
:102EE00015B0F0BD01A81A9A1499FDF7EBFA1A98DB
:102EF000012808D901A81A99FEF7BFFD0021C9438E
:102F0000884200D1ECE731462046FEF79FFD109045
:102F1000109800280BD101A8405D6107490F0841B6
:102F200008218A1BFF211141084007431EE0109829
:102F300001281BD101A9681C085C6107490F082200
:102F4000511A711A521AFF21114108400F9001A81D
:102F5000405D6107490F08410E906007400F08214E
:102F6000091A0F98884007430E9807433846B7E779
:102F700002480068401C0149086070473C0000207E
:102F8000F8B504460D4616460027701B2146FDF78E
:102F900013FB07463846F8BDF0B587B006460D4628
:102FA000002006902F4605952C460495002E01D052
:102FB000002D03D10020C04307B0F0BD00200690D3
:102FC00054E0701C0699405C0300FEF7F9FC121DEA
:102FD0001E1F49492021222349494949242E3D2ABF
:102FE0000A493878244908700846017823A0FDF77B
:102FF000FFF821480078012802D100F0A9FD02E085
:10300000002000F0A5FD2CE02BE02AE029E028E0DC
:1030100027E026E025E0059801781FA0FDF7E8F8F5
:103020001FE020A0FDF7E4F81BE0A1796279237985
:10303000A0680093019202910390E378A27821881E
:103040001DA0FDF7D5F80CE026A0FDF7D1F82AA0C9
:10305000FDF7CEF8049801782BA0FDF7C9F800E041
:1030600000BF00BF0698401CC0B206903178069899
:103070008142A6DC00209FE7080100204576743AD3
:10308000204556454E545F536D6172745377697491
:1030900068202564200A0000525353492025640A01
:1030A000000000005452414E53504152454E545F6F
:1030B00044415441200A0000574946495F4E54504C
:1030C000203A205B25642D25642D2564202530328F
:1030D000643A253032643A253032645D5B25645DA4
:1030E000200A00004D4F44554C4520494E464F2084
:1030F0002E2E2E0A00000000574946204D4F445501
:103100004C45202E2E2E0A006D6F64756C65547927
:103110007065203A205B25645D200A00F0B591B00F
:10312000054600260020049003900024029000270A
:10313000002D05D185A0FDF75BF8601E11B0F0BD34
:10314000FEF732FE04AA8B498B48FEF7DBFF0646EA
:10315000002E75D189A0FDF74BF8864C20790D28FB
:1031600045D00EDC07283ED006DC012818D0032805
:103170001AD0062870D141E00A2840D00C286BD123
:103180003EE016283DD006DC0F283ED0112845D061
:10319000142861D143E0182848D022285CD150E09F
:1031A0002046FEF7EDFE5FE0E279A17978A0FDF719
:1031B0001FF803A80090384609306B461B8A1A1A7C
:1031C0006C480830C11905AB0298FFF741F9002897
:1031D00008D1E37905A92046039AFFF795F870A076
:1031E000FDF706F840E02046FEF728FE3CE02046CA
:1031F000FEF724FE2046FFF7E1F935E000BF00BFEF
:1032000000BF2046FFF74EFD2EE02046FEF716FEDB
:1032100066A0FCF7EDFFFFF7A7FC25E024E02046C1
:10322000FFF740FD66A0FCF7E3FF1DE02046FFF737
:1032300039FD2046FFF74EFC69A0FCF7D9FF13E0EB
:1032400013E02046FFF72EFD2046FFF789F96AA01C
:10325000FCF7CEFF08E0FFE702212046FEF740FE24
:103260006CA0FCF7C5FF00BF0DE00120C043864203
:1032700009D1404C01212046FEF732FE6BA0FCF73D
:10328000B7FF30465AE73B48401E00780300FEF780
:1032900097FB065504142435455500203549491E31
:1032A00008700922AC3108464F38FFF775FE13212C
:1032B00030485C30FDF763F941E000202D49491E9C
:1032C00008700122BE3108464E38FFF765FE132113
:1032D00028486F30FDF753F931E000202549491E99
:1032E000087008463130FDF74EF902462149183181
:1032F000019008464430FFF74FFE20E000201D49B2
:10330000491E08700C22BF3108463C38FFF744FEC6
:10331000132118488230FDF732F910E000201549DA
:10332000491E08704122CB3108463538FFF734FE7C
:10333000412110489530FDF722F900E000BF00BFA1
:103340002846FEF7CBFC0020F8E6000047697A77B4
:1033500069747348616E646C65204572726F722087
:103360002C20496C6C6567616C20506172616D0A3C
:1033700000000000120100201D020020476574209B
:103380004F6E65205061636B6574210A0000000078
:10339000666C6167202578202578200A00000000EF
:1033A00041636B44617461203A200A007265706F5A
:1033B00072743A4D4355207265626F6F74210A0032
:1033C00041636B2050524F44554354494F4E5F4D1B
:1033D0004F44452073756363657373200A000000D2
:1033E00041636B204745545F5554542073756363A4
:1033F000657373200A00000041636B204745545FEA
:103400004D6F64756C652073756363657373200A13
:10341000000000004552523A20636D6420636F64DF
:1034200065206572726F72210A0000004552523A9F
:1034300020636865636B2073756D206572726F72AF
:10344000210A000010B50D493020FDF7ADF80B49F9
:103450000C310B48FDF7A8F8084800F048FA00289E
:1034600003D108A0FCF7C4FE02E00BA0FCF7C0FEED
:10347000FF210D310D48FDF782F810BD1D0200201F
:103480002D0200207262437265617465205375637A
:1034900063657373200A000072624372656174652C
:1034A000204661696C64200A0000000011010020C0
:1034B000F0B587B0054600242B00FEF781FA05041D
:1034C000346596C6F70001A8FEF7F6FE0B216846A4
:1034D00001727A48FDF757F807467848FDF753F828
:1034E000461C76493046FDF75FF86846477205206E
:1034F000FEF77DFA01466846C180092101A8FFF761
:1035000089FB69460873092101A800F033FB0446D2
:10351000002C03DA21466AA0FCF76AFE092101A803
:10352000FFF78EFBC6E004A8FEF7C6FE0921684639
:1035300001756248FDF727F807466048FDF723F854
:10354000461C5E493046FDF72FF8684647750576FC
:103550000620FEF74CFA0146684641820A2104A87B
:10356000FFF758FB694648760A2104A800F002FBE1
:103570000446002C03DA214651A0FCF739FE0A214B
:1035800004A8FFF75DFB95E004A8FEF795FE09216E
:10359000684601754948FCF7F6FF07464748FCF7BF
:1035A000F2FF461C45493046FCF7FEFF684647756A
:1035B00005760620FEF71BFA0146684641820A217D
:1035C00004A8FFF727FB694648760A2104A800F003
:1035D000D1FA0446002C03DA214639A0FCF708FE94
:1035E0000A2104A8FFF72CFB64E001A8FEF764FEA3
:1035F0001321684601723148FCF7C5FF07462F4882
:10360000FCF7C1FF461C2D493046FCF7CDFF68464C
:1036100047720520FEF7EBF901466846C180092193
:1036200001A8FFF7F7FA69460873092101A800F01D
:10363000A1FA0446002C03DA214621A0FCF7D8FDAC
:10364000092101A8FFF7FCFA34E001A8FEF734FED7
:103650001521684601721948FCF795FF074617487F
:10366000FCF791FF461C15493046FCF79DFF684664
:1036700047720520FEF7BBF901466846C180092163
:1036800001A8FFF7C7FA69460873092101A800F0ED
:1036900071FA0446002C03DA214609A0FCF7A8FDC4
:1036A000092101A8FFF7CCFA04E0FFE70BA0FCF723
:1036B0009FFD00BF00BF204607B0F0BD46010020BF
:1036C0004552523A20756172742077726974652090
:1036D0006572726F72202564200A00004552523ACA
:1036E000204366674D6F6465206572726F72210AB0
:1036F000000000001CB501218804FDF7C5FC8720EF
:1037000000900121684601710021817103214171FE
:1037100069460448FDF77CFA87210248FDF7EEFA76
:103720001CBD00000004004808B5FFF7E3FFFDF7EB
:1037300087FEFEF74FF87D20C000FDF79FF9FDF7EB
:10374000D1FFFDF7BAF9FDF701FFFDF7D1FEFDF757
:103750009DFEFDF7E7F8FDF773FBFDF7A9FB264893
:10376000FDF754FB25A0274B1F22D2020021009019
:103770000846FDF7C5FA00F02BFAFFF763FE0020BC
:10378000FFF796FE0220FFF793FE012000F0E0F91C
:10379000002000F0DDF92DE01B491C48FDF71FF962
:1037A000194802781948017819A0FCF721FD17483B
:1037B00002781DA12048FCF729FD1F48114B1F224C
:1037C000D202102100900020FDF79AFA0E480278EC
:1037D0001AA11948FCF71AFD17480A4B1F22D202FA
:1037E000202100900020FDF78BFA00F0DDF917484A
:1037F000FFF794FCD0E70000E0FF00002020676F97
:103800006F642000FF07000019000020180000204E
:1038100074656D703A202564202068756D693A25BD
:1038200064200D0A0000000054656D7065726174BB
:1038300075653A20256400005000002048756D69C8
:10384000646974793A2025640000000008010020B2
:10385000704770B50446002C01D1401E70BD201D7C
:10386000FCF791FE054620460830FCF78CFE8542A9
:1038700001D10020F2E7201DFCF785FE0546204619
:103880000830FCF780FE854209D220460830FCF75C
:103890007AFE0546201DFCF776FE281ADEE7204654
:1038A00000F01BF80546201DFCF76DFE064620467D
:1038B0000830FCF768FE301A281ACFE770B50446C6
:1038C000002C01D1401E70BD204600F006F80546D0
:1038D0002046FFF7BEFF281AF5E710B50446002C76
:1038E00001D1401E10BD2046FCF74DFEFAE770B531
:1038F0000446002C01D1401E70BD20460C30FCF760
:1039000042FE0546211DFCF74FFE20460C30FCF719
:103910003AFE054621460831FCF746FE0020EBE75B
:10392000F7B504460025002C01D1401EFEBD0198CC
:10393000002801D1401EF9E7201DFCF724FE0646B1
:1039400020460830FCF71FFE86421ED22046FFF7B5
:1039500080FF0299884201D9029802E02046FFF7D1
:1039600078FF0546201DFCF70EFE06462A46314626
:103970000198FCF7A7FD201DFCF705FE4619211D47
:103980003046FCF711FE2846D0E72046FFF7A5FF9A
:103990000646201DFCF7F7FD074620460C30FCF7D5
:1039A000F2FD381A311A0298814213D9029D201D66
:1039B000FCF7E9FD06462A4631460198FCF782FDF0
:1039C000201DFCF7E0FD4619211D3046FCF7ECFDFB
:1039D0002846ABE72046FFF780FF0646201DFCF790
:1039E000D2FD074620460C30FCF7CDFD381A351ABB
:1039F000201DFCF7C8FD06462A4631460198FCF713
:103A000061FD20460C30FCF7BEFD0646211DFCF78B
:103A1000CBFD0298421B019841192046FFF780FF19
:103A20004519284682E7F7B582B0044615460020BE
:103A30000190002C02D00398002803D10020C0433D
:103A400005B0F0BD2046FFF739FFA84202D801209B
:103A5000C043F5E7201DFCF796FD064620460830DA
:103A6000FCF791FD86425DD82046FFF736FF0646FB
:103A700020460830FCF787FD074620460C30FCF74F
:103A800082FD381A301A0190019885422DD82046BF
:103A90000830FCF778FD06462A460399FCF712FD2C
:103AA00020460830FCF76FFD4619214608313046A4
:103AB000FCF77AFD20460830FCF765FD06462046F7
:103AC0000C30FCF760FD07462046FFF706FF38186C
:103AD000864208D120460C30FCF755FD06462146AB
:103AE0000831FCF761FD2846AAE720460830FCF7BC
:103AF0004AFD0646019A0399FCF7E4FC20460C3087
:103B0000FCF741FD064621460831FCF74DFD0198C2
:103B10002A1A019B0398C1182046FFF784FF0199D8
:103B200040188DE720460830FCF72DFD06462A4652
:103B30000399FCF7C7FC20460830FCF724FD461922
:103B4000214608313046FCF72FFD284678E7000073
:103B500010B50446002C04D187210548FDF7CEF8A6
:103B600005E0012C03D187210148FDF7C5F810BD00
:103B70000004004870B505460E460024002D01D112
:103B8000401E70BD00240BE0285DFDF77DFD022C7A
:103B900005D3285DFF2802D15520FDF775FD641C73
:103BA000B442F1D33046ECE710B506490648007838
:103BB000FCF7FAFC0349091D04480078FCF7F4FC03
:103BC00010BD00000901002018000020190000208D
:103BD00010B509210148FCF7D2FC10BD08010020F6
:103BE00000000000000000000000000000000000D5
:103BF0000010101010101010101000001010000015
:103C000000006C6C24240000000001000000000093
:103C10000024242424FE48484848FC9090909000BA
:103C200000103C54929050381412129254781000A4
:103C30000000225C94A8481010242A5254880000E6
:103C4000000030484850206E54948C888A740000DC
:103C500000003030101000000000000000000000E4
:103C6000000408101020202020202010100804003C
:103C700000804020201010101010102020408000E4
:103C800000000000105438103854100000000000EC
:103C900000000010101010FE1010101000000000A6
:103CA00000000000000000000000000010102000D4
:103CB00000000000000000FE000000000000000006
:103CC00000000000000000000000000010100000D4
:103CD00000000404080810102020404080800000EC
:103CE00000003844828282828282828244380000CC
:103CF000000010701010101010101010107C000038
:103D000000003844828204081020408284FC0000B5
:103D10000000384482020438040202824438000061
:103D20000000040C141424244444FE04040E000077
:103D30000000FC808080B8C4820202828478000087
:103D400000003C428280B8C48282828244380000F3
:103D500000007E42820404080808101010100000C1
:103D60000000384482824438448282824438000011
:103D70000000384482828282463A0282443800003F
:103D800000000000101000000000101000000000F3
:103D900000000000101000000000001010200000C3
:103DA0000000000006186080601806000000000097
:103DB000000000000000FE0000FE00000000000007
:103DC00000000000C0300C020C30C00000000000F9
:103DD0000038448282020408101010001010000005
:103DE00000003844829AAAAAAAAAAA9680423C0055
:103DF000000010101028282844447C4444EE0000A1
:103E00000000FC424242427C4242424242FC0000EC
:103E100000003C44828080808080828244380000A0
:103E20000000F844424242424242424244F800000A
:103E30000000FC444240447C4440404244FC0000BA
:103E40000000FC444240447C4440404040F00000BC
:103E50000000344C828080808E8484844C34000046
:103E60000000EE444444447C4444444444EE000096
:103E700000007C101010101010101010107C0000AA
:103E800000003E0808080808080808888870000034
:103E90000000EE44484850605048484444EE00005A
:103EA0000000E040404040404040404244FC0000B0
:103EB0000000C6446C6C6C545454444444EE0000FE
:103EC0000000CE4464646454544C4C4C44E4000000
:103ED00000003844828282828282828244380000DA
:103EE0000000F844424242447840404040E0000034
:103EF0000000384482828282828282BA443C02007C
:103F00000000F048444444487048444444E60000FB
:103F100000003C44828040300C0202824478000061
:103F200000007C5492101010101010101038000077
:103F30000000EE44444444444444444444380000B3
:103F40000000EE44444444282828281010100000A3
:103F50000000EE4454545454545428282828000097
:103F60000000EE44442828101028284444EE0000A5
:103F70000000EE44442828281010101010380000CB
:103F800000007E44840808102020408284FC000049
:103F9000001C1010101010101010101010101C0029
:103FA0000000EE445454FE5454542828282800009D
:103FB0000070101010101010101010101010700061
:103FC00000304884000000000000000000000000F5
:103FD0000000000000000000000000000000FE00E3
:103FE0000040200000000000000000000000000071
:103FF0000000000000007884047C84848C7600003B
:104000000000C040404058644242424264580000B0
:1040100000000000000038448080808044380000A8
:1040200000000C040404344C848484844C36000066
:10403000000000000000788484FC80808478000008
:10404000000018242020F8202020202020700000CC
:104050000000000000003A444478807C82827C00AA
:104060000000C040404058644444444444EE0000D2
:104070000000101000003010101010101038000058
:104080000000101000003010101010101090600090
:104090000000C04040405C485060504844EE000082
:1040A0000000301010101011101010101039000006
:1040B000000000000000ACD29292929292D60000D2
:1040C00000000000000058E44444444444EE000072
:1040D00000000000000038448282828244380000E0
:1040E000000000000000D864424242645840E000F2
:1040F000000000000000364C8484844C34040E0020
:104100000000000000006C30202020202070000003
:104110000000000000007888846018844478000063
:10412000000000202020F82020202020241800005B
:10413000000000000000C64242424242463A0000EF
:10414000000000000000EE44442828281010000061
:10415000000000000000EE444454542828280000C9
:10416000000000000000EE442810102844EE00007B
:10417000000000000000EE444428281010A0C000F9
:104180000000000000007E448810204284FC0000F3
:10419000000C1010101010601010101010100C00F7
:1041A000001010101010101010101010101010002F
:1041B00000C0202020202018202020202020C00007
:1041C00000000000000000728C00000000000000F1
:1041D00000000000000000000000000000000000DF
:1041E00000000000000000000000000000000000CF
:1041F00000000000000000000000000000000000BF
:1042000000000000000000000000000000000000AE
:10421000000000000000000000000000000000009E
:10422000000000000000000000000000000000008E
:10423000000000000000000000000000000000007E
:10424000000000000000000000000000000000006E
:10425000000000001808C808080000000000000066
:104260000000007F6060606060606060E06020006F
:10427000000000000000000000000000000000003E
:1042800000000018181810101000000000000000B6
:104290000000000000000000000808080C0C0C00E2
:1042A000000000000000000000000000000000000E
:1042B0000000006C3810007CC6701CC67C0000003A
:1042C00000000010386C00780C7CCCCC760000002C
:1042D000000000000000007CC670C0C67C0000002A
:1042E000000000000000006C967CD0D66C0000003E
:1042F000000000000000007CC60606C67C0000002E
:1043000000000000386CC6C6FEC6C66C380000004F
:104310000000000000001038286C44C6C6000000F1
:10432000000000000000007CC606FEC67C00000005
:1043300000000000000000DC666666F60606663CCB
:10434000000000006C38F80C7EC6C6C67C00000079
:10435000000000000E1B18181818181818D8700044
:10436000000000000000FE860C180C0606C67C004B
:1043700000000076DC0000780C7CCCCC76000000DD
:1043800000000076DC00007CC60606C67C0000004B
:1043900000000076DC0000DC6666666666000000F1
:1043A0000000000000000076999F98996F000000BF
:1043B0000000000000000000000000000C060600E5
:1043C00000000000000000000000003C66663C00A9
:1043D00000000000000000000000000000000000DD
:1043E00000000000183C3C3C1818001818000000A1
:1043F000000000C6C6C64400000000000000000027
:10440000000000006C6CFE6C6C6CFE6C6C000000BC
:10441000000018187CC6C2C07C0686C67C1818002E
:10442000000000000000C3C60C183063C300000089
:1044300000000000386C6C3876DCCCCC76000000D4
:10444000000000303030600000000000000000007C
:1044500000000000183060606060603018000000EC
:1044600000000000180C06060606060C18000000E6
:104470000000000000006C38FE386C0000000000F6
:1044800000000000001818187E181818000000001E
:1044900000000000000000000000181818300000A4
:1044A0000000000000000000FE000000000000000E
:1044B00000000000000000000000001818000000CC
:1044C0000000000002060C183060C08000000000F0
:1044D000000000007CC6CEDEF6E6C6C67C0000000A
:1044E0000000000018387818181818187E0000000E
:1044F000000000007CC6060C183060C6FE000000FC
:10450000000000007CC606063C0606C67C000000D3
:10451000000000000C1C3C6CCCFE0C0C1E000000CB
:1045200000000000FEC0C0C0FC0606C67C00000003
:10453000000000003860C0C0FCC6C6C67C00000099
:1045400000000000FEC6060C1830303030000000BD
:10455000000000007CC6C6C67CC6C6C67C00000043
:10456000000000007CC6C6C67E06060C780000006F
:1045700000000000001818000000181800000000DB
:10458000000000000018180000001818300000009B
:1045900000000000060C18306030180C0600000007
:1045A000000000000000007E00007E00000000000F
:1045B000000000006030180C060C1830600000008D
:1045C000000000007CC6C60C181800181800000077
:1045D000000000007CC6C6DEDEDEDCC07C00000021
:1045E0000000000010386CC6C6FEC6C6C60000003B
:1045F00000000000FC6666667C666666FC000000E3
:10460000000000003C66C2C0C0C0C2663C000000A2
:1046100000000000F86C66666666666CF8000000D4
:1046200000000000FE66626878686266FE000000B6
:1046300000000000FE66626878686060F0000000BC
:10464000000000003C66C2C0C0DEC6663A00000042
:1046500000000000C6C6C6C6FEC6C6C6C60000002C
:10466000000000003C181818181818183C0000002A
:10467000000000001E0C0C0C0C0CCCCC78000000D0
:1046800000000000E6666C6C786C6C66E60000006A
:1046900000000000F060606060606266FE00000084
:1046A00000000000C6EEFED6C6C6C6C6C6000000A4
:1046B00000000000C6E6F6FEDECEC6C6C60000005C
:1046C00000000000386CC6C6C6C6C66C38000000C4
:1046D00000000000FC6666667C606060F000000020
:1046E000000000007CC6C6C6D6DE7C0C0E000000B2
:1046F00000000000FC6666667C6C6666E6000000F2
:10470000000000007CC6C660380CC6C67C000000F5
:10471000000000007E5A1818181818183C000000F5
:1047200000000000C6C6C6C6C6C6C6C67C000000DD
:1047300000000000C6C6C6C6C6C66C381000000021
:1047400000000000C6C6C6C6C6D6FEEEC600000003
:1047500000000000C6C6C66C386CC6C6C6000000A5
:1047600000000000C6C6C66C383838387C0000002F
:1047700000000000FEC68C183060C2C6FE000000BB
:10478000000000003C303030303030303C00000061
:104790000000000080C0E070381C0E06020000001F
:1047A000000000003C0C0C0C0C0C0C0C3C0000003D
:1047B000000010386CC6000000000000000000007F
:1047C0000000000000000000000000000000FE00EB
:1047D0000000003030180000000000000000000061
:1047E00000000000000000780C7CCCCC76000000BB
:1047F00000000000E06060786C666666DC00000027
:10480000000000000000007CC6C0C0C67C000000A4
:10481000000000001C0C0C3C6CCCCCCC76000000E2
:10482000000000000000007CC6FEC0C67C00000046
:10483000000000001C3632307C3030307800000040
:104840000000000000000076CCCCCC7C0CCC7800C2
:1048500000000000E060606C76666666E6000000BE
:104860000000000018180038181818183C00000044
:10487000000000000606000E0606060666663C00FE
:1048800000000000E06060666C786C66E600000086
:104890000000000038181818181818183C000000FC
:1048A0000000000000000044FED6D6D6D60000006E
:1048B00000000000000000DC66666666660000001E
:1048C000000000000000007CC6C6C6C67C000000D8
:1048D00000000000000000DC6666667C6060F0009E
:1048E0000000000000000076CCCCCC7C0C0C1E003C
:1048F00000000000000000DC76666060F000000050
:10490000000000000000007CC6701CC67C00000097
:1049100000000000103030FC303030361C00000049
:1049200000000000000000CCCCCCCCCC7600000015
:1049300000000000000000C6C6C66C381000000071
:1049400000000000000000C6C6C6D6FE6C000000D5
:1049500000000000000000C66C38386CC600000083
:1049600000000000000000C6C6C6C67E060C780027
:1049700000000000000000FECC183066FE000000C1
:10498000000000000E181818701818180E0000000B
:104990000000000018181818001818181800000057
:1049A00000000000701818180E1818187000000089
:1049B0000000000076DC00000000000000000000A5
:1049C00000000000000000000000000000000000E7
:1049D00000000000000000000000000000000000D7
:1049E00000000000000000000000000000000000C7
:1049F00000000000000000000000000000000000B7
:1051D0000000D2BA0080404027F811400140827898
:1051E000424816A81AD0235022204220425002885A
:1051F00000000000BEA73FE020203FE020203FE06D
:105200000000FDF885088508FDF885088508FDF88B
:10521000850800000000B2E200084F8828880AA82C
:105220008AA84AA80AA82AA82AA842284508848841
:105230008888103800000000CAD440502048204020
:105240000FF80040E04027402240224022202A2838
:1052500033A82E18000800000000B3CC00001BF09B
:10526000E210221023F0F800200033F06880608004
:10527000A3F02080208027F800000000D0F2020078
:1052800001003FF820002FF02020224021803FF82D
:105290002088209040804080838000000000D1D58D
:1052A000200010F87E20444028F87E8848A850A8A6
:1052B00064A848A872A884501888610800000000FB
:1052C000C9AB100010003FE0404080807FF04210EA
:1052D000421042107FF04000400840083FF80000B4
:1052E0000000CCEE20802FF8208027F0F41027F06B
:1052F000241027F0241027F03410CFF802200410D7
:1053000000000000B3E404000200FFF808001040B1
:1053100020207FF00890088008800880108820886E
:10532000C07800000000CEC4040002000200FFF8B4
:105330001040104008800880050002000500088029
:105340003060C01800000000D7D604000200FFF84B
:10535000800880083FC0008001000200FFF80200C2
:10536000020002000E0000000000CFD43FE0202029
:1053700020203FE0202020203FE008804890289017
:1053800028A008800880FFF800000000CABE0000C6
:105390003FE0000000000000FFF802001240122071
:1053A00022104208820802000E0000000000CDBC5E
:1053B0007FF84008440847C84848548843084CC808
:1053C000733840884C08430840887FF8000000008C
:1053D000C6AC00802080208020803FF0200020008C
:1053E00020003FC02040204020404040804000003E
:1053F00000000000000000000000000000000000AD
:10540000000000000000000000000000000000009C
:1054100000000000303132333435363738394142FC
:105420004344454640305800303132333435363706
:1054300038396162636465664030780004000008B2
:105440000000000000000002000100001000000049
:105450007054000800000020500000000401000803
:10546000C05400085000002070080000200100080F
:10547000006CDC02000000000000000001020304D8
:1054800006070809000000000000000000000102FB
:1054900003040102030406070809000000000000DD
:1054A00000000000000000000000000000000000FC
:1054B00000000000000000000000000000000000EC
:04000005080000C12E
:00000001FF
